:400000000080002011000000D90A0000D90A000008B5044B1A6803F53F5302331A6000F063FD00BFFA46004010B5054C237833B9044B13B10448AFF300800123237010BD51
:400040003081FF1F00000000C8100000084B10B51BB108490848AFF300800848036803B910BD074B002BFBD0BDE81040184700BF000000003481FF1FC8100000C880FF1F82
:400080000000000010B51F4B1B781F4C227893401E4A12881A4214BF0120002000F0F2FE23780133DBB22370194A1278013A934224DD00222270154A138801339BB21380A5
:4000C000144A1288013A934202DD00220F4B1A800E4B1A88104B1A700122104B1A7006E00E480278013202705B1A0B4A13700A4B1B780B4A11784A1E9342F1DC00F042FE73
:4001000010BD00BF5B81FF1F5A81FF1F6281FF1F5F81FF1F5681FF1F5D81FF1F6081FF1F5E81FF1F0023094A1370094A13800422084B1A800223084A13700F21074A117066
:40014000074A13700122074B1A7070475A81FF1F6281FF1F5681FF1F5F81FF1F5C81FF1F5E81FF1F5B81FF1F08B5FFF7DBFF00F07BFE00F067FD00F0CBFD00F0D5FEBF484A
:4001800000F0F2FD62B6BE4B1B78022B68D1BD4B1B88BBB9BC4C237803EB8303580000F0FE0000F017FD237803EB8303580000F0FE0000F075FD002000F01EFF002000F0D2
:4001C00027FFE0E7012B17D1AF4C237803EB8303580000F0FE0000F0FDFC237803EB8303580000F0FE0000F05BFD012000F004FF002000F00DFFC6E7022B17D1A24C2378AD
:4002000003EB8303580000F0FE0000F0E3FC237803EB8303580000F0FE0000F041FD002000F0EAFE002000F0F3FEACE7032BAAD1954C237803EB8303580000F0FE0000F057
:40024000C9FC237803EB8303580000F0FE0000F027FD002000F0D0FE012000F0D9FE92E7032B40F0A680874B1B8883B9864B1878C00000F0F80000F0ADFC002000F010FD1D
:40028000002000F0B9FE002000F0C2FE7BE7012B10D1002000F09EFC7B4B1878C00000F0F80000F0FDFC002000F0A6FE002000F0AFFE68E7022B10D1734B1878C00000F0DB
:4002C000F80000F087FC002000F0EAFC012000F093FE002000F09CFE55E7032B10D1002000F078FC684B1878C00000F0F80000F0D7FC002000F080FE012000F089FE42E785
:40030000042B13D1604C2078000100F0F00000F061FC2078000100F0F00000F0C1FC002000F06AFE002000F073FE2CE7052B13D1554C2078000100F0F00000F04BFC207809
:40034000000100F0F00000F0ABFC012000F054FE002000F05DFE16E7062B13D14A4C2078000100F0F00000F035FC2078000100F0F00000F095FC012000F03EFE012000F09D
:4003800047FE00E7072B7FF4FEAE3F4C2078000100F0F00000F01EFC2078000100F0F00000F07EFC002000F027FE012000F030FEE9E6042B7DD1334B1B880B2B0BD90020B4
:4003C00000F01AFE012000F023FE2E4B1B880C3B2E4A138021E0072B0BD9012000F00CFE012000F015FE274B1B88083B274A138013E0032B0BD9012000F0FEFD012000F081
:4004000007FE204B1B88043B204A138005E0002000F0F2FD002000F0FBFD1C4B1B886BB9194C2078C00000F0F80000F0D3FB2078C00000F0F80000F033FCA4E6012B0DD1FD
:40044000114C2078000100F0F00000F0C3FB2078C00000F0F80000F023FC94E6022B17D1094C2078C00000F0F80000F0B3FB2078000100F0F00000F013FC84E68500000080
:400480005F81FF1F6281FF1F5C81FF1F5881FF1F032B7FF478AEAB4C2078000100F0F00000F098FB2078000100F0F00000F0F8FB69E6052B43D1A44B1B88172B0BD90020CA
:4004C00000F09AFD002000F0A3FD9F4B1B88183B9E4A138021E00F2B0BD9002000F08CFD002000F095FD984B1B88103B974A138013E0072B0BD9002000F07EFD002000F027
:4005000087FD914B1B88083B904A138005E0002000F072FD002000F07BFD8A4C23788C4A107803FB00F0C0B200F054FB2378894A107803FB00F0C0B200F0B2FB23E6062B81
:4005400043D1814B1B882F2B0BD9002000F054FD002000F05DFD7C4B1B88303B7B4A138021E01F2B0BD9012000F046FD002000F04FFD754B1B88203B744A138013E00F2BA7
:400580000BD9012000F038FD012000F041FD6E4B1B88103B6D4A138005E0002000F02CFD002000F035FD674C2378694A107803FB00F0C0B200F00EFB2378664A107803FBBE
:4005C00000F0C0B200F06CFBDDE5072B43D15E4B1B885F2B0BD9002000F00EFD002000F017FD594B1B88603B584A138021E03F2B0BD9012000F000FD002000F009FD524B1A
:400600001B88403B514A138013E01F2B0BD9012000F0F2FC012000F0FBFC4B4B1B88203B4A4A138005E0002000F0E6FC002000F0EFFC444C2378464A107803FB00F0C0B216
:4006400000F0C8FA2378434A107803FB00F0C0B200F026FB97E5082B43D13B4B1B88BF2B0BD9002000F0C8FC002000F0D1FC364B1B88C03B354A138021E07F2B0BD901205B
:4006800000F0BAFC002000F0C3FC2F4B1B88803B2E4A138013E03F2B0BD9012000F0ACFC012000F0B5FC284B1B88403B274A138005E0002000F0A0FC002000F0A9FC214CDE
:4006C0002378234A107803FB00F0C0B200F082FA2378204A107803FB00F0C0B200F0E0FA51E5092B50D1184B1B88B3F5C07F0CD3002000F081FC002000F08AFC124B1B886D
:40070000A3F5C073114A13802CE0FF2B0CD9012000F072FC002000F07BFC0B4B1B88A3F580730A4A13801DE07F2B15D9012000F063FC012000F06CFC034B1B88803B034AFD
:4007400013800FE05C81FF1F6281FF1F5881FF1F5D81FF1F6081FF1F002000F04DFC002000F056FC2E4C23782E4A107803FB00F0C0B200F02FFA23782B4A107803FB00F03A
:40078000C0B200F08DFAFEE40A2B7FF4FCAC274B1B88B3F5407F0CD3002000F02DFC012000F036FC214B1B88A3F54073204A138024E0B3F5007F0CD3012000F01DFC00209C
:4007C00000F026FC194B1B88A3F50073184A138014E0FF2B0CD9012000F00EFC012000F017FC124B1B88A3F58073114A138005E0002000F001FC002000F00AFC084C23782E
:40080000084A107803FB00F0C0B200F0E3F92378054A107803FB00F0C0B200F041FAB2E45C81FF1F5D81FF1F6081FF1F6281FF1F5881FF1FFEE700BFF0B40022174611E079
:4008400050F82760F3B226F0FF0608E001EB420511F812406D78A5550132013BDBB2002BF4D10137112FEBD9F0BC70470C4B1B78DBB203F007010B4A11701B0901321370E7
:400880008022094B1A700123084A137002F653121370133213704422054B1A70704700BFCF0100496E5800400C5100402D5100407658004008B50A46002100F0FCFB08BDFF
:4008C00038B54FF49C72274B1A801823264A137045F6BF5102321180023213700222234B1A7008224FF040231A70032103F5007319701F4B1B78DBB21E490B701E4B1A80C0
:4009000041F25122023B1A80002419250CE01B4B1B7803F0010343EA440404F003044FF4F07000F081FB013D0DB1032CEFD115B90320FFF77FFF124B4FF480721A800722D8
:400940001A7000220F490A704820023108701A700222033B1A700C4A137843F00303137038BD00BF80400040824000400043004008010049A14600402242004025420040D6
:400980000440004006400040A243004008B500F087FB08BD38B572B63A4A137843F00403137000240CE0384D630019194A0011462A44084691882858FFF77CFF0134E4B2D7
:4009C000062CF0D900240BE02F49A3001819420088188022016BC06AFFF7D8FF0134E4B2002CF1D029494FF09040FFF725FF284A137843F0020313701032137843F00203AA
:400A00001370244C237843F040032370A2F58632513A137843F01003137008221E491F48FFF7B4FF0A221E491E48FFF7AFFF08221D491E48FFF7AAFF08221D491D48FFF733
:400A4000A5FF08221C491D48FFF7A0FF08221C491C48FFF79BFF1C4A137843F0080313701A4D61232B70FFF72BFF81232B700122174B1A70FFF7FAFE0E2221461548FFF748
:400A800085FF38BDE8460040CC1000004800004803500140A0430040F403004802510040FC030048C051004008040048F251004010040048125100401804004822510040D5
:400AC0002004004832510040224300400048004004000840B043004008B500F0B5FA03680C2B00D1FEE7FEE708B5104E104D16E029686B68AC68002204E051F8040B43F803
:400B0000040B0432A242F8D1E868002203E0002143F8041B04328242F9D11035013E002EE6D100F097FAFFF71FFBFEE7010000002811000008B5104A104B1A60104A136855
:400B400043F40073136000230AE0032B03D80D4A52F8231000E00C490C4A42F8231001332F2BF2D90A4B1A780A4B1A70074A0A4B1A60FFF70FFF08BD0004FA050CED00E092
:400B800014ED00E000000000D90A00000080FF1FBC760040C080FF1F08ED00E0054A137843F0040313701032137843F004031370704700BFA8430040054B1A7802F0FD0299
:400BC0001A701A7800F0020010431870704700BF28580040014B1870704700BF825B0040064B1B78C3F3810303F19243063393F82831DBB2024A1370704700BF28580040D9
:400C00000A46004008B5064B1A7802F0F3021A701A7800F00C0010431870FFF7E1FF08BD2858004010B50024054B1C7001331C700420FFF7E7FF2046FFF7BEFF10BD00BF25
:400C40002858004008B5074B1B7823B9FFF7EAFF0122044B1A70FFF7A1FF6420FFF7BAFF08BD00BF4C81FF1F054A137843F0010313701032137843F001031370704700BF92
:400C8000A8430040054B1A7802F0FD021A701A7800F0020010431870704700BF20580040014B1870704700BF805B0040064B1B78C3F3810303F19243063393F82031DBB231
:400CC000024A1370704700BF205800400846004008B5064B1A7802F0F3021A701A7800F00C0010431870FFF7E1FF08BD2058004010B50024054B1C7001331C700420FFF7FD
:400D0000E7FF2046FFF7BEFF10BD00BF2058004008B5074B1B7823B9FFF7EAFF0122044B1A70FFF7A1FF6420FFF7BAFF08BD00BF4D81FF1F014B1B68D865704708ED00E046
:400D40004001C0B2014B1870704700BF07E400E08022014B1A60704700E100E08022014B1A60704780E100E010B50446FFF7F6FF2046FFF7DFFF0720FFF7E2FFFFF7E8FF5C
:400D800010BD00BF024B1878C0F38000704700BF8345004001BE704770B504460E46074B1D681F2802D90020FFF7F4FF04F01F04103455F8240045F8246070BD08ED00E04F
:400DC00038B504460D46072902D90020FFF7E2FF1F2C02D90020FFF7DDFF04F01F0000F1604000F564406D01EDB2057038BD00BF024A137843F080031370704775650040FB
:400E0000014B1870704700BF05650040014B1870704700BF45650040014B1870704700BF25650040014B1870704700BF3565004008B50C4A137803F0C00343F0090313703C
:400E40002032137843F001031370FF20FFF7D8FFFF20FFF7DBFF7F20FFF7DEFF8020FFF7E1FF08BD7565004008B5054B1B7823B9FFF7DEFF0122024B1A70FFF7B9FF08BD7D
:400E80004E81FF1F044A137803F0DF03400100F020001843107070473051004008B50D490020FFF779FF07210020FFF789FF0023094A13707221094A1170202102F20112E4
:400EC00011700621633A11704721103211705032137008BD450F00004F81FF1F8664004010B500F0A9F804460C4A137843F02003137002F20112137843F0100313700122F3
:400F0000074B1A60074A137843F01003137000F065F8204600F094F810BD00BF9664004000E100E09465004008B5054B5B7823B9FFF7B4FF0122024B5A70FFF7D1FF08BD27
:400F40004F81FF1F1D4B1B78DBB213F01E0F05D01B4803F01E0201780A43027003F0200303F0FF0233B3174B1978C9B2164B1B78DBB21648C154164B1B7813F0FF0F02D01F
:400F80000121144B197010490B780133DBB20B700B78DBB2072B02D900210B4B19700A4B1978C9B20C4B1B78DBB2994202D10121074B1970002AC5D1704700BF676500402D
:400FC0004F81FF1F466400405281FF1F6481FF1F5381FF1F5481FF1F5181FF1F054A137843F0010313701032137843F001031370704700BFA2430040044A137803F0FB03D0
:40100000800000F0040018431070704700510040044A137803F0F703C00000F00800184310707047005100400230800803D000BF01380046FCD17047EFF3108072B67047D8
:4010400080F31088704700BF014B1868704700BF2C81FF1F0E4B70B51E460E4C0025E41AA410A54204D056F8253098470135F8E700F048F8084B094C1E46E41AA41000256A
:40108000A54204D056F8253098470135F8E770BD1011000010110000101100001811000010B5431E0A44914204D011F8014B03F8014FF8E710BD03460244934202D003F88D
:4010C000011BFAE7704700000000000040510040300000000140000680060140800900140140000800400140000A004C014000020050014020000000000601407403004876
:4011000080004300F8B500BFF8BC08BC9E4670474D000000350B0000F8B500BFF8BC08BC9E4670472900000038110000C880FF1F68000000400000000000000000000000E1
:40114000000000000000000000000000000000000000000000000000000000000211000000000000000000000000000000000000000000000000000000000000000000005C
:4011800000000000000000000000000000000000000000000000000000000000CC80FF1F0000000000000000000000000000000000000000000000000000000000000000C5
:4011C00000000000000000000000000000000000000000000000000000000000000000000000000000000000000000000000000000000000000000000000000000000000EF
:4012000000000000000000000000000000000000000000000000000000000000000000000000000000000000000000000000000000000000000000000000000000000000AE
:40124000000000000000000000000000000000000000000000000000000000000000000000000000000000000000000000000000000000000000000000000000000000006E
:40128000000000000000000000000000000000000000000000000000000000000000000000000000000000000000000000000000000000000000000000000000000000002E
:020000040003F7
:0200000480007A
:4000000001450040035200400164004002650040060601403007014065140140411501404A16014043170140034001400241014004420140044301400748014008490140CE
:4000400008500140015101401A01190261047C018672840F8738A201A601B001BE01D804DF010424068007100C400D280E42108011081601172A1B011C441D881E081F047B
:400080002402252426202E802F143440362437023C803E2A458547124C804E04561059045A085C406D046E806F04762B77288001C070C2F0C4FCCA70CCF0CEF0D0F0D220D2
:4000C000D610000302140403050C060C0733081A0A040E180F0C154017131B101E081F08213123062531270E2A053160321C330F34033710382039023A083B083E103F407C
:400100004002460449FF4A074BFF4C404D204EF04F0550085401580459045A045B045F01604061A86240632082208302840C86118C098E10920393039C10A010A20CA41CFE
:40014000A602A814AB01AF04B01FB101B420B502B704BA08C010C104C550C721C832C9FFCAFFCBFFCDA0CF04D018D280D804D904DA04DB04DC10DD11DF01E040E2C0E440BC
:40018000E540E6C0E8C0EAC0ECC0EEC00022010B020204400508068009800D800E8010081529181419081C801D041E801F10206021052242240825402742290A2C022F0852
:4001C000303831803702384039083F01400445414F01500851805501570858105A845B01740280048F40912092049410950A97209A809B019D0CA021A448AE80C0BFC29104
:40020000C472CA33CC8ECE8AD094D60FE210000A02100406051E0806091E0C010D100F041014110112081501160619041A061B181D021E0620062418270128182B012D0883
:400240002F0430183102331C34013606370139803E10580459045F018308850A87048B108D038F0C970599039B049F10A503A704B510B70FBB80BF10C056C103C50CC6B0BE
:40028000C7E0C829C9FFCAFFCBFFCEF0CF44D00CD418D604D904DA04DB04DF01E6C0EA40EB020424068107010C140D280E421440162817041E4520022304242025012681DB
:4002C000272029082C142E8030283280350536403720390A3A103B803D043E68401048294B80511052015A01604063468044810187409004910494209640972098409A107B
:400300009B049D049E80A128A240A301A440A501A904AA01C0F0C2F0C470CA72CCFECE7FD002D20CD601D80D33803640CC30A640A7805280A640A780D4208280A6C0A78045
:40034000E620021083808640A640A780C010E66050045B4083408C04AE10D4A0E680E840000101010A010B01100311011A031B01000F00000110800033080C0003184000BD
:4003800000400000020080231F2720181C3C23023F3F000000002300040000040C1C00210804000010002C380F1FC04000002820000041402406030001C0E0000AFFFFFF1F
:4003C00062A0F0410C0000000000021004040404000000010000000000004002001030100010101200000000000000000000000000000000000C0C00000080000400000437
:4004000004000400000000000100000000000000000B0B0000000000000000000000010004232300030000000000000000000000000000000000000000000000000000004F
:40044000000000000000000000000000000000000000000000000000000000000000000000000000000000000000000000000000000000000000000000000000000000007C
:40048000000000000000000000000000000000000000000000000000000000000000000000000000000000000000000000000000000000000000000000000000000000003C
:4004C00000000000000000000000000000000000000000000000000000000000000000000000000000000000000000000000000000000000000000000000000000000000FC
:4005000000000000000000000000000000000000000000000000000000000000000000000000000000000000000000000000000000000000000000000000000000000000BB
:0200000490006A
:0400000000004005B7
:0200000490105A
:04000000BC90ACAF55
:0200000490303A
:020000007993F2
:0200000490402A
:4000000000000000000000000000000000000000000000000000000000000000000000000000000000000000000000000000000000000000000000000000000000000000C0
:400040000000000000000000000000000000000000000000000000000000000000000000000000000000000000000000000000000000000000000000000000000000000080
:400080000000000000000000000000000000000000000000000000000000000000000000000000000000000000000000000000000000000000000000000000000000000040
:4000C0000000000000000000000000000000000000000000000000000000000000000000000000000000000000000000000000000000000000000000000000000000000000
:0200000490501A
:0C00000000012E16106900012E1D89FC65
:00000001FF